{
  "_format": "hh-sol-artifact-1",
  "contractName": "NFTMarket",
  "sourceName": "contracts/NFTMarket.sol",
  "abi": [
    {
      "inputs": [],
      "stateMutability": "nonpayable",
      "type": "constructor"
    },
    {
      "anonymous": false,
      "inputs": [
        {
          "indexed": true,
          "internalType": "uint256",
          "name": "itemId",
          "type": "uint256"
        },
        {
          "indexed": true,
          "internalType": "address",
          "name": "nftContract",
          "type": "address"
        },
        {
          "indexed": true,
          "internalType": "uint256",
          "name": "tokenId",
          "type": "uint256"
        },
        {
          "indexed": false,
          "internalType": "address",
          "name": "seller",
          "type": "address"
        },
        {
          "indexed": false,
          "internalType": "address",
          "name": "owner",
          "type": "address"
        },
        {
          "indexed": false,
          "internalType": "uint256",
          "name": "price",
          "type": "uint256"
        }
      ],
      "name": "MarketItemCreated",
      "type": "event"
    },
    {
      "inputs": [
        {
          "internalType": "address",
          "name": "nftContract",
          "type": "address"
        },
        {
          "internalType": "uint256",
          "name": "tokenId",
          "type": "uint256"
        },
        {
          "internalType": "uint256",
          "name": "price",
          "type": "uint256"
        }
      ],
      "name": "createMarketItem",
      "outputs": [],
      "stateMutability": "payable",
      "type": "function"
    },
    {
      "inputs": [
        {
          "internalType": "address",
          "name": "nftContract",
          "type": "address"
        },
        {
          "internalType": "uint256",
          "name": "itemId",
          "type": "uint256"
        }
      ],
      "name": "createMarketSale",
      "outputs": [],
      "stateMutability": "payable",
      "type": "function"
    },
    {
      "inputs": [],
      "name": "fetchItemsCreated",
      "outputs": [
        {
          "components": [
            {
              "internalType": "uint256",
              "name": "itemId",
              "type": "uint256"
            },
            {
              "internalType": "address",
              "name": "nftContract",
              "type": "address"
            },
            {
              "internalType": "uint256",
              "name": "tokenId",
              "type": "uint256"
            },
            {
              "internalType": "address payable",
              "name": "seller",
              "type": "address"
            },
            {
              "internalType": "address payable",
              "name": "owner",
              "type": "address"
            },
            {
              "internalType": "uint256",
              "name": "price",
              "type": "uint256"
            }
          ],
          "internalType": "struct NFTMarket.MarketItem[]",
          "name": "",
          "type": "tuple[]"
        }
      ],
      "stateMutability": "view",
      "type": "function"
    },
    {
      "inputs": [],
      "name": "fetchMarketItems",
      "outputs": [
        {
          "components": [
            {
              "internalType": "uint256",
              "name": "itemId",
              "type": "uint256"
            },
            {
              "internalType": "address",
              "name": "nftContract",
              "type": "address"
            },
            {
              "internalType": "uint256",
              "name": "tokenId",
              "type": "uint256"
            },
            {
              "internalType": "address payable",
              "name": "seller",
              "type": "address"
            },
            {
              "internalType": "address payable",
              "name": "owner",
              "type": "address"
            },
            {
              "internalType": "uint256",
              "name": "price",
              "type": "uint256"
            }
          ],
          "internalType": "struct NFTMarket.MarketItem[]",
          "name": "",
          "type": "tuple[]"
        }
      ],
      "stateMutability": "view",
      "type": "function"
    },
    {
      "inputs": [],
      "name": "fetchMyNFTs",
      "outputs": [
        {
          "components": [
            {
              "internalType": "uint256",
              "name": "itemId",
              "type": "uint256"
            },
            {
              "internalType": "address",
              "name": "nftContract",
              "type": "address"
            },
            {
              "internalType": "uint256",
              "name": "tokenId",
              "type": "uint256"
            },
            {
              "internalType": "address payable",
              "name": "seller",
              "type": "address"
            },
            {
              "internalType": "address payable",
              "name": "owner",
              "type": "address"
            },
            {
              "internalType": "uint256",
              "name": "price",
              "type": "uint256"
            }
          ],
          "internalType": "struct NFTMarket.MarketItem[]",
          "name": "",
          "type": "tuple[]"
        }
      ],
      "stateMutability": "view",
      "type": "function"
    }
  ],
  "bytecode": "0x608060405234801561001057600080fd5b506001600055600380546001600160a01b03191633179055610c6e806100376000396000f3fe60806040526004361061004a5760003560e01c80630f08efe01461004f578063202e37401461007a57806358eb2df51461008f578063c23b139e146100a4578063f064c32e146100b7575b600080fd5b34801561005b57600080fd5b506100646100cc565b6040516100719190610a6a565b60405180910390f35b34801561008657600080fd5b50610064610247565b6100a261009d366004610b0e565b610400565b005b6100a26100b2366004610b41565b61061c565b3480156100c357600080fd5b50610064610860565b606060006100d960015490565b905060006100e660025490565b6001546100f39190610b81565b90506000808267ffffffffffffffff81111561011157610111610b98565b60405190808252806020026020018201604052801561014a57816020015b610137610a19565b81526020019060019003908161012f5790505b50905060005b8481101561023e576000600481610168846001610bae565b81526020810191909152604001600020600401546001600160a01b0316141561022c576000610198826001610bae565b600081815260046020818152604092839020835160c0810185528154815260018201546001600160a01b039081169382019390935260028201549481019490945260038101548216606085015291820154166080830152600581015460a083015285519293509185908790811061021157610211610bc6565b6020908102919091010152610227600186610bae565b945050505b8061023681610bdc565b915050610150565b50949350505050565b6060600061025460015490565b905060008060005b838110156102b7573360046000610274846001610bae565b81526020810191909152604001600020600401546001600160a01b031614156102a5576102a2600184610bae565b92505b806102af81610bdc565b91505061025c565b5060008267ffffffffffffffff8111156102d3576102d3610b98565b60405190808252806020026020018201604052801561030c57816020015b6102f9610a19565b8152602001906001900390816102f15790505b50905060005b8481101561023e57336004600061032a846001610bae565b81526020810191909152604001600020600401546001600160a01b031614156103ee57600061035a826001610bae565b600081815260046020818152604092839020835160c0810185528154815260018201546001600160a01b039081169382019390935260028201549481019490945260038101548216606085015291820154166080830152600581015460a08301528551929350918590879081106103d3576103d3610bc6565b60209081029190910101526103e9600186610bae565b945050505b806103f881610bdc565b915050610312565b600260005414156104585760405162461bcd60e51b815260206004820152601f60248201527f5265656e7472616e637947756172643a207265656e7472616e742063616c6c0060448201526064015b60405180910390fd5b6002600055806104aa5760405162461bcd60e51b815260206004820152601c60248201527f5072696365206d757374206265206174206c6561737420312077656900000000604482015260640161044f565b6104b8600180546001019055565b60006104c360015490565b6040805160c0810182528281526001600160a01b0387811660208084018281528486018a8152336060870181815260006080890181815260a08a018e81528c8352600497889052918b902099518a55945160018a0180546001600160a01b0319908116928b16929092179055935160028a0155905160038901805485169189169190911790559251878501805490931696169590951790555160059094019390935592516323b872dd60e01b81529182015230602482015260448101869052919250906323b872dd90606401600060405180830381600087803b1580156105a957600080fd5b505af11580156105bd573d6000803e3d6000fd5b505060408051338152600060208201529081018590528592506001600160a01b038716915083907f2ad024d53a0dc50c130967f8d4941927ee087ea31394cebb2b9599d3706c9c009060600160405180910390a4505060016000555050565b6002600054141561066f5760405162461bcd60e51b815260206004820152601f60248201527f5265656e7472616e637947756172643a207265656e7472616e742063616c6c00604482015260640161044f565b600260008181558281526004602052604090206005810154910154348214610701576040805162461bcd60e51b81526020600482015260248101919091527f506c65617365207375626d6974207468652061736b696e67207072696365206960448201527f6e206f7264657220746f20636f6d706c65746520746865207075726368617365606482015260840161044f565b6000612710610711346019610bf7565b61071b9190610c16565b9050600061271061072e346126f7610bf7565b6107389190610c16565b6000868152600460205260408082206003015490519293506001600160a01b03169183156108fc0291849190818181858888f19350505050158015610781573d6000803e3d6000fd5b506040516323b872dd60e01b8152306004820152336024820152604481018490526001600160a01b038716906323b872dd90606401600060405180830381600087803b1580156107d057600080fd5b505af11580156107e4573d6000803e3d6000fd5b50505060008681526004602081905260409091200180546001600160a01b0319163317905550610818600280546001019055565b6003546040516001600160a01b039091169083156108fc029084906000818181858888f19350505050158015610852573d6000803e3d6000fd5b505060016000555050505050565b6060600061086d60015490565b905060008060005b838110156108d057336004600061088d846001610bae565b81526020810191909152604001600020600301546001600160a01b031614156108be576108bb600184610bae565b92505b806108c881610bdc565b915050610875565b5060008267ffffffffffffffff8111156108ec576108ec610b98565b60405190808252806020026020018201604052801561092557816020015b610912610a19565b81526020019060019003908161090a5790505b50905060005b8481101561023e573360046000610943846001610bae565b81526020810191909152604001600020600301546001600160a01b03161415610a07576000610973826001610bae565b600081815260046020818152604092839020835160c0810185528154815260018201546001600160a01b039081169382019390935260028201549481019490945260038101548216606085015291820154166080830152600581015460a08301528551929350918590879081106109ec576109ec610bc6565b6020908102919091010152610a02600186610bae565b945050505b80610a1181610bdc565b91505061092b565b6040518060c001604052806000815260200160006001600160a01b031681526020016000815260200160006001600160a01b0316815260200160006001600160a01b03168152602001600081525090565b602080825282518282018190526000919060409081850190868401855b82811015610ae557815180518552868101516001600160a01b039081168887015286820151878701526060808301518216908701526080808301519091169086015260a0908101519085015260c09093019290850190600101610a87565b5091979650505050505050565b80356001600160a01b0381168114610b0957600080fd5b919050565b600080600060608486031215610b2357600080fd5b610b2c84610af2565b95602085013595506040909401359392505050565b60008060408385031215610b5457600080fd5b610b5d83610af2565b946020939093013593505050565b634e487b7160e01b600052601160045260246000fd5b600082821015610b9357610b93610b6b565b500390565b634e487b7160e01b600052604160045260246000fd5b60008219821115610bc157610bc1610b6b565b500190565b634e487b7160e01b600052603260045260246000fd5b6000600019821415610bf057610bf0610b6b565b5060010190565b6000816000190483118215151615610c1157610c11610b6b565b500290565b600082610c3357634e487b7160e01b600052601260045260246000fd5b50049056fea26469706673582212205eecf2f57e6bd4d0638177d938240cd0064fc0cdc330496ff49e105f7194c06c64736f6c634300080b0033",
  "linkReferences": {},
  "deployedLinkReferences": {}
}